{"abi":[{"type":"function","name":"addPerson","inputs":[{"name":"_name","type":"string","internalType":"string"},{"name":"_favouriteNum","type":"uint256","internalType":"uint256"}],"outputs":[],"stateMutability":"nonpayable"},{"type":"function","name":"listOfPeople","inputs":[{"name":"","type":"uint256","internalType":"uint256"}],"outputs":[{"name":"favouriteNum","type":"uint256","internalType":"uint256"},{"name":"name","type":"string","internalType":"string"}],"stateMutability":"view"},{"type":"function","name":"myFriend","inputs":[],"outputs":[{"name":"favouriteNum","type":"uint256","internalType":"uint256"},{"name":"name","type":"string","internalType":"string"}],"stateMutability":"view"},{"type":"function","name":"nameToFavouriteNumber","inputs":[{"name":"","type":"string","internalType":"string"}],"outputs":[{"name":"","type":"uint256","internalType":"uint256"}],"stateMutability":"view"},{"type":"function","name":"retrieve","inputs":[],"outputs":[{"name":"","type":"uint256","internalType":"uint256"}],"stateMutability":"view"},{"type":"function","name":"store","inputs":[{"name":"_favouriteNumber","type":"uint256","internalType":"uint256"}],"outputs":[],"stateMutability":"nonpayable"}],"bytecode":{"object":"0x6000805460ff19169055605860015560c06040526004608090815263416d657960e01b60a052600290610032908261015d565b50600380546001600160a01b031916734e5c8a1af0945983d59f621e1ad6da7d7d80ff421790556218d85d60ea1b60045560408051808201825260078082528251808401909352600583526427b6b5b0b960d91b60208481019190915282018390528151600690815591926100a7908261015d565b5050503480156100b657600080fd5b5061021c565b634e487b7160e01b600052604160045260246000fd5b600181811c908216806100e657607f821691505b60208210810361010657634e487b7160e01b600052602260045260246000fd5b50919050565b601f821115610158576000816000526020600020601f850160051c810160208610156101355750805b601f850160051c820191505b8181101561015457828155600101610141565b5050505b505050565b81516001600160401b03811115610176576101766100bc565b61018a8161018484546100d2565b8461010c565b602080601f8311600181146101bf57600084156101a75750858301515b600019600386901b1c1916600185901b178555610154565b600085815260208120601f198616915b828110156101ee578886015182559484019460019091019084016101cf565b508582101561020c5787850151600019600388901b60f8161c191681555b5050505050600190811b01905550565b6105ae8061022b6000396000f3fe608060405234801561001057600080fd5b50600436106100625760003560e01c80632e64cec1146100675780632ebce6311461007e5780636057361d1461009f5780636f760f41146100b4578063af16a723146100c7578063b2ac62ef146100cf575b600080fd5b6001545b6040519081526020015b60405180910390f35b61009161008c366004610279565b6100fa565b6040516100759291906102b6565b6100b26100ad366004610279565b600155565b005b6100b26100c2366004610393565b6101b2565b610091610265565b61006b6100dd3660046103d8565b805160208183018101805160098252928201919093012091525481565b6008818154811061010a57600080fd5b6000918252602090912060029091020180546001820180549193509061012f90610415565b80601f016020809104026020016040519081016040528092919081815260200182805461015b90610415565b80156101a85780601f1061017d576101008083540402835291602001916101a8565b820191906000526020600020905b81548152906001019060200180831161018b57829003601f168201915b5050505050905082565b60408051808201825282815260208101849052905182906009906101d790869061044f565b9081526040519081900360209081019091209190915560088054600181018255600091909152825160029091027ff3f7a9fe364faab93b216da50a3214154f22a0a2b415b23a84c8169e8b636ee381019182559183015183927ff3f7a9fe364faab93b216da50a3214154f22a0a2b415b23a84c8169e8b636ee4019061025d90826104b8565b505050505050565b600680546007805491929161012f90610415565b60006020828403121561028b57600080fd5b5035919050565b60005b838110156102ad578181015183820152602001610295565b50506000910152565b82815260406020820152600082518060408401526102db816060850160208701610292565b601f01601f1916919091016060019392505050565b634e487b7160e01b600052604160045260246000fd5b600082601f83011261031757600080fd5b813567ffffffffffffffff80821115610332576103326102f0565b604051601f8301601f19908116603f0116810190828211818310171561035a5761035a6102f0565b8160405283815286602085880101111561037357600080fd5b836020870160208301376000602085830101528094505050505092915050565b600080604083850312156103a657600080fd5b823567ffffffffffffffff8111156103bd57600080fd5b6103c985828601610306565b95602094909401359450505050565b6000602082840312156103ea57600080fd5b813567ffffffffffffffff81111561040157600080fd5b61040d84828501610306565b949350505050565b600181811c9082168061042957607f821691505b60208210810361044957634e487b7160e01b600052602260045260246000fd5b50919050565b60008251610461818460208701610292565b9190910192915050565b601f8211156104b3576000816000526020600020601f850160051c810160208610156104945750805b601f850160051c820191505b8181101561025d578281556001016104a0565b505050565b815167ffffffffffffffff8111156104d2576104d26102f0565b6104e6816104e08454610415565b8461046b565b602080601f83116001811461051b57600084156105035750858301515b600019600386901b1c1916600185901b17855561025d565b600085815260208120601f198616915b8281101561054a5788860151825594840194600190910190840161052b565b50858210156105685787850151600019600388901b60f8161c191681555b5050505050600190811b0190555056fea26469706673582212207f7255a2c9176e4d8f77c596e42f4755e2aadaa5ed95ec114ec4bf880614d8e664736f6c63430008170033","linkReferences":{}},"methodIdentifiers":{"addPerson(string,uint256)":"6f760f41","listOfPeople(uint256)":"2ebce631","myFriend()":"af16a723","nameToFavouriteNumber(string)":"b2ac62ef","retrieve()":"2e64cec1","store(uint256)":"6057361d"},"id":0}